{
  "contractName": "Lifeflow",
  "abi": [
    {
      "inputs": [],
      "stateMutability": "nonpayable",
      "type": "constructor"
    },
    {
      "inputs": [],
      "name": "owner",
      "outputs": [
        {
          "internalType": "address",
          "name": "",
          "type": "address"
        }
      ],
      "stateMutability": "view",
      "type": "function",
      "constant": true
    },
    {
      "inputs": [
        {
          "internalType": "address",
          "name": "",
          "type": "address"
        },
        {
          "internalType": "uint256",
          "name": "",
          "type": "uint256"
        }
      ],
      "name": "transactions",
      "outputs": [
        {
          "internalType": "uint256",
          "name": "id",
          "type": "uint256"
        },
        {
          "internalType": "uint32",
          "name": "did",
          "type": "uint32"
        },
        {
          "internalType": "uint32",
          "name": "rid",
          "type": "uint32"
        },
        {
          "internalType": "uint32",
          "name": "eid",
          "type": "uint32"
        },
        {
          "internalType": "uint32",
          "name": "volReceived",
          "type": "uint32"
        }
      ],
      "stateMutability": "view",
      "type": "function",
      "constant": true
    },
    {
      "inputs": [
        {
          "internalType": "uint32",
          "name": "",
          "type": "uint32"
        },
        {
          "internalType": "uint256",
          "name": "",
          "type": "uint256"
        }
      ],
      "name": "transactionsByEID",
      "outputs": [
        {
          "internalType": "uint256",
          "name": "id",
          "type": "uint256"
        },
        {
          "internalType": "uint32",
          "name": "did",
          "type": "uint32"
        },
        {
          "internalType": "uint32",
          "name": "rid",
          "type": "uint32"
        },
        {
          "internalType": "uint32",
          "name": "eid",
          "type": "uint32"
        },
        {
          "internalType": "uint32",
          "name": "volReceived",
          "type": "uint32"
        }
      ],
      "stateMutability": "view",
      "type": "function",
      "constant": true
    },
    {
      "inputs": [
        {
          "internalType": "uint32",
          "name": "",
          "type": "uint32"
        },
        {
          "internalType": "uint256",
          "name": "",
          "type": "uint256"
        }
      ],
      "name": "transactionsByID",
      "outputs": [
        {
          "internalType": "uint256",
          "name": "id",
          "type": "uint256"
        },
        {
          "internalType": "uint32",
          "name": "did",
          "type": "uint32"
        },
        {
          "internalType": "uint32",
          "name": "rid",
          "type": "uint32"
        },
        {
          "internalType": "uint32",
          "name": "eid",
          "type": "uint32"
        },
        {
          "internalType": "uint32",
          "name": "volReceived",
          "type": "uint32"
        }
      ],
      "stateMutability": "view",
      "type": "function",
      "constant": true
    },
    {
      "inputs": [
        {
          "internalType": "uint32",
          "name": "did",
          "type": "uint32"
        },
        {
          "internalType": "uint32",
          "name": "rid",
          "type": "uint32"
        },
        {
          "internalType": "uint32",
          "name": "eid",
          "type": "uint32"
        },
        {
          "internalType": "uint32",
          "name": "volReceived",
          "type": "uint32"
        }
      ],
      "name": "addTransaction",
      "outputs": [],
      "stateMutability": "nonpayable",
      "type": "function"
    },
    {
      "inputs": [],
      "name": "getTransactions",
      "outputs": [
        {
          "components": [
            {
              "internalType": "uint256",
              "name": "id",
              "type": "uint256"
            },
            {
              "internalType": "uint32",
              "name": "did",
              "type": "uint32"
            },
            {
              "internalType": "uint32",
              "name": "rid",
              "type": "uint32"
            },
            {
              "internalType": "uint32",
              "name": "eid",
              "type": "uint32"
            },
            {
              "internalType": "uint32",
              "name": "volReceived",
              "type": "uint32"
            }
          ],
          "internalType": "struct Lifeflow.Transaction[]",
          "name": "",
          "type": "tuple[]"
        }
      ],
      "stateMutability": "view",
      "type": "function",
      "constant": true
    },
    {
      "inputs": [
        {
          "internalType": "uint32",
          "name": "id",
          "type": "uint32"
        }
      ],
      "name": "getTransactionsByUserID",
      "outputs": [
        {
          "components": [
            {
              "internalType": "uint256",
              "name": "id",
              "type": "uint256"
            },
            {
              "internalType": "uint32",
              "name": "did",
              "type": "uint32"
            },
            {
              "internalType": "uint32",
              "name": "rid",
              "type": "uint32"
            },
            {
              "internalType": "uint32",
              "name": "eid",
              "type": "uint32"
            },
            {
              "internalType": "uint32",
              "name": "volReceived",
              "type": "uint32"
            }
          ],
          "internalType": "struct Lifeflow.Transaction[]",
          "name": "",
          "type": "tuple[]"
        }
      ],
      "stateMutability": "view",
      "type": "function",
      "constant": true
    },
    {
      "inputs": [
        {
          "internalType": "uint32",
          "name": "id",
          "type": "uint32"
        }
      ],
      "name": "getTransactionsByEID",
      "outputs": [
        {
          "components": [
            {
              "internalType": "uint256",
              "name": "id",
              "type": "uint256"
            },
            {
              "internalType": "uint32",
              "name": "did",
              "type": "uint32"
            },
            {
              "internalType": "uint32",
              "name": "rid",
              "type": "uint32"
            },
            {
              "internalType": "uint32",
              "name": "eid",
              "type": "uint32"
            },
            {
              "internalType": "uint32",
              "name": "volReceived",
              "type": "uint32"
            }
          ],
          "internalType": "struct Lifeflow.Transaction[]",
          "name": "",
          "type": "tuple[]"
        }
      ],
      "stateMutability": "view",
      "type": "function",
      "constant": true
    }
  ],
  "bytecode": "0x608060405234801561000f575f80fd5b50335f806101000a81548173ffffffffffffffffffffffffffffffffffffffff021916908373ffffffffffffffffffffffffffffffffffffffff160217905550610f528061005c5f395ff3fe608060405234801561000f575f80fd5b5060043610610086575f3560e01c8063884a050711610059578063884a0507146101285780638da5cb5b1461015c578063a65a22831461017a578063e36584b2146101aa57610086565b8063145381281461008a5780632da5b035146100be5780632e7ad2f2146100da57806383920e901461010a575b5f80fd5b6100a4600480360381019061009f9190610bf5565b6101de565b6040516100b5959493929190610c60565b60405180910390f35b6100d860048036038101906100d39190610cdb565b610269565b005b6100f460048036038101906100ef9190610d3f565b6106c2565b6040516101019190610e96565b60405180910390f35b6101126107db565b60405161011f9190610e96565b60405180910390f35b610142600480360381019061013d9190610eb6565b610912565b604051610153959493929190610c60565b60405180910390f35b61016461099d565b6040516101719190610f03565b60405180910390f35b610194600480360381019061018f9190610d3f565b6109c0565b6040516101a19190610e96565b60405180910390f35b6101c460048036038101906101bf9190610eb6565b610ad9565b6040516101d5959493929190610c60565b60405180910390f35b6001602052815f5260405f2081815481106101f7575f80fd5b905f5260205f2090600202015f9150915050805f015490806001015f9054906101000a900463ffffffff16908060010160049054906101000a900463ffffffff16908060010160089054906101000a900463ffffffff169080600101600c9054906101000a900463ffffffff16905085565b5f6040518060a0016040528060015f3373ffffffffffffffffffffffffffffffffffffffff1673ffffffffffffffffffffffffffffffffffffffff1681526020019081526020015f208054905081526020018663ffffffff1681526020018563ffffffff1681526020018463ffffffff1681526020018363ffffffff16815250905060015f3373ffffffffffffffffffffffffffffffffffffffff1673ffffffffffffffffffffffffffffffffffffffff1681526020019081526020015f2081908060018154018082558091505060019003905f5260205f2090600202015f909190919091505f820151815f01556020820151816001015f6101000a81548163ffffffff021916908363ffffffff16021790555060408201518160010160046101000a81548163ffffffff021916908363ffffffff16021790555060608201518160010160086101000a81548163ffffffff021916908363ffffffff160217905550608082015181600101600c6101000a81548163ffffffff021916908363ffffffff160217905550505060025f826020015163ffffffff1663ffffffff1681526020019081526020015f2081908060018154018082558091505060019003905f5260205f2090600202015f909190919091505f820151815f01556020820151816001015f6101000a81548163ffffffff021916908363ffffffff16021790555060408201518160010160046101000a81548163ffffffff021916908363ffffffff16021790555060608201518160010160086101000a81548163ffffffff021916908363ffffffff160217905550608082015181600101600c6101000a81548163ffffffff021916908363ffffffff160217905550505060025f826040015163ffffffff1663ffffffff1681526020019081526020015f2081908060018154018082558091505060019003905f5260205f2090600202015f909190919091505f820151815f01556020820151816001015f6101000a81548163ffffffff021916908363ffffffff16021790555060408201518160010160046101000a81548163ffffffff021916908363ffffffff16021790555060608201518160010160086101000a81548163ffffffff021916908363ffffffff160217905550608082015181600101600c6101000a81548163ffffffff021916908363ffffffff160217905550505060035f826060015163ffffffff1663ffffffff1681526020019081526020015f2081908060018154018082558091505060019003905f5260205f2090600202015f909190919091505f820151815f01556020820151816001015f6101000a81548163ffffffff021916908363ffffffff16021790555060408201518160010160046101000a81548163ffffffff021916908363ffffffff16021790555060608201518160010160086101000a81548163ffffffff021916908363ffffffff160217905550608082015181600101600c6101000a81548163ffffffff021916908363ffffffff16021790555050505050505050565b606060025f8363ffffffff1663ffffffff1681526020019081526020015f20805480602002602001604051908101604052809291908181526020015f905b828210156107d0578382905f5260205f2090600202016040518060a00160405290815f8201548152602001600182015f9054906101000a900463ffffffff1663ffffffff1663ffffffff1681526020016001820160049054906101000a900463ffffffff1663ffffffff1663ffffffff1681526020016001820160089054906101000a900463ffffffff1663ffffffff1663ffffffff16815260200160018201600c9054906101000a900463ffffffff1663ffffffff1663ffffffff168152505081526020019060010190610700565b505050509050919050565b606060015f3373ffffffffffffffffffffffffffffffffffffffff1673ffffffffffffffffffffffffffffffffffffffff1681526020019081526020015f20805480602002602001604051908101604052809291908181526020015f905b82821015610909578382905f5260205f2090600202016040518060a00160405290815f8201548152602001600182015f9054906101000a900463ffffffff1663ffffffff1663ffffffff1681526020016001820160049054906101000a900463ffffffff1663ffffffff1663ffffffff1681526020016001820160089054906101000a900463ffffffff1663ffffffff1663ffffffff16815260200160018201600c9054906101000a900463ffffffff1663ffffffff1663ffffffff168152505081526020019060010190610839565b50505050905090565b6003602052815f5260405f20818154811061092b575f80fd5b905f5260205f2090600202015f9150915050805f015490806001015f9054906101000a900463ffffffff16908060010160049054906101000a900463ffffffff16908060010160089054906101000a900463ffffffff169080600101600c9054906101000a900463ffffffff16905085565b5f8054906101000a900473ffffffffffffffffffffffffffffffffffffffff1681565b606060035f8363ffffffff1663ffffffff1681526020019081526020015f20805480602002602001604051908101604052809291908181526020015f905b82821015610ace578382905f5260205f2090600202016040518060a00160405290815f8201548152602001600182015f9054906101000a900463ffffffff1663ffffffff1663ffffffff1681526020016001820160049054906101000a900463ffffffff1663ffffffff1663ffffffff1681526020016001820160089054906101000a900463ffffffff1663ffffffff1663ffffffff16815260200160018201600c9054906101000a900463ffffffff1663ffffffff1663ffffffff1681525050815260200190600101906109fe565b505050509050919050565b6002602052815f5260405f208181548110610af2575f80fd5b905f5260205f2090600202015f9150915050805f015490806001015f9054906101000a900463ffffffff16908060010160049054906101000a900463ffffffff16908060010160089054906101000a900463ffffffff169080600101600c9054906101000a900463ffffffff16905085565b5f80fd5b5f73ffffffffffffffffffffffffffffffffffffffff82169050919050565b5f610b9182610b68565b9050919050565b610ba181610b87565b8114610bab575f80fd5b50565b5f81359050610bbc81610b98565b92915050565b5f819050919050565b610bd481610bc2565b8114610bde575f80fd5b50565b5f81359050610bef81610bcb565b92915050565b5f8060408385031215610c0b57610c0a610b64565b5b5f610c1885828601610bae565b9250506020610c2985828601610be1565b9150509250929050565b610c3c81610bc2565b82525050565b5f63ffffffff82169050919050565b610c5a81610c42565b82525050565b5f60a082019050610c735f830188610c33565b610c806020830187610c51565b610c8d6040830186610c51565b610c9a6060830185610c51565b610ca76080830184610c51565b9695505050505050565b610cba81610c42565b8114610cc4575f80fd5b50565b5f81359050610cd581610cb1565b92915050565b5f805f8060808587031215610cf357610cf2610b64565b5b5f610d0087828801610cc7565b9450506020610d1187828801610cc7565b9350506040610d2287828801610cc7565b9250506060610d3387828801610cc7565b91505092959194509250565b5f60208284031215610d5457610d53610b64565b5b5f610d6184828501610cc7565b91505092915050565b5f81519050919050565b5f82825260208201905092915050565b5f819050602082019050919050565b610d9c81610bc2565b82525050565b610dab81610c42565b82525050565b60a082015f820151610dc55f850182610d93565b506020820151610dd86020850182610da2565b506040820151610deb6040850182610da2565b506060820151610dfe6060850182610da2565b506080820151610e116080850182610da2565b50505050565b5f610e228383610db1565b60a08301905092915050565b5f602082019050919050565b5f610e4482610d6a565b610e4e8185610d74565b9350610e5983610d84565b805f5b83811015610e89578151610e708882610e17565b9750610e7b83610e2e565b925050600181019050610e5c565b5085935050505092915050565b5f6020820190508181035f830152610eae8184610e3a565b905092915050565b5f8060408385031215610ecc57610ecb610b64565b5b5f610ed985828601610cc7565b9250506020610eea85828601610be1565b9150509250929050565b610efd81610b87565b82525050565b5f602082019050610f165f830184610ef4565b9291505056fea2646970667358221220908dbe83a6b64b66458144ef8f1296d35971fac24a608a1c7aab7d2425019abc64736f6c63430008150033",
  "immutableReferences": {},
  "source": "// SPDX-License-Identifier: MIT\npragma solidity >=0.6.12 <0.9.0;\n\ncontract Lifeflow {\n    address public owner;\n\n    struct Transaction {\n        uint256 id;\n        uint32 did;\n        uint32 rid;\n        uint32 eid;\n        uint32 volReceived;\n    }\n\n    mapping(address => Transaction[]) public transactions;\n    mapping(uint32 => Transaction[]) public transactionsByID;\n    mapping(uint32 => Transaction[]) public transactionsByEID;\n\n    constructor() {\n        owner = msg.sender;\n    }\n\n    modifier onlyOwner() {\n        require(msg.sender == owner, \"Only owner is allowed to perform this action\");\n        _;\n    }\n\n    function addTransaction(\n        uint32 did,\n        uint32 rid,\n        uint32 eid,\n        uint32 volReceived\n    ) public {\n        Transaction memory tr = Transaction({\n            id: transactions[msg.sender].length, \n            did: did,\n            rid: rid,\n            volReceived: volReceived,\n            eid: eid\n        });\n       transactions[msg.sender].push(tr);\n       transactionsByID[tr.did].push(tr);\n       transactionsByID[tr.rid].push(tr);\n       transactionsByEID[tr.eid].push(tr);\n       //return tr;\n    }\n\n    function getTransactions() public view returns (Transaction[] memory) {\n        return transactions[msg.sender];\n    }\n\n    function getTransactionsByUserID(uint32 id) public view returns (Transaction[] memory) {\n        return transactionsByID[id];\n    }\n\n    function getTransactionsByEID(uint32 id) public view returns (Transaction[] memory) {\n        return transactionsByEID[id];\n    }\n}\n",
  "sourcePath": "C:\\Ved\\Academic\\Coding\\Projects\\lifeflow_backend\\blockchain_server\\contracts\\Lifeflow.sol",
  "compiler": {
    "name": "solc",
    "version": "0.8.21+commit.d9974bed.Emscripten.clang"
  },
  "schemaVersion": "3.4.16",
  "updatedAt": "2024-03-15T11:31:59.293Z",
  "networkType": "ethereum",
  "devdoc": {
    "kind": "dev",
    "methods": {},
    "version": 1
  },
  "userdoc": {
    "kind": "user",
    "methods": {},
    "version": 1
  }
}