{
  "contractName": "Lifeflow",
  "abi": [
    {
      "inputs": [],
      "stateMutability": "nonpayable",
      "type": "constructor"
    },
    {
      "inputs": [],
      "name": "owner",
      "outputs": [
        {
          "internalType": "address",
          "name": "",
          "type": "address"
        }
      ],
      "stateMutability": "view",
      "type": "function",
      "constant": true
    },
    {
      "inputs": [
        {
          "internalType": "address",
          "name": "",
          "type": "address"
        },
        {
          "internalType": "uint256",
          "name": "",
          "type": "uint256"
        }
      ],
      "name": "transactions",
      "outputs": [
        {
          "internalType": "uint256",
          "name": "id",
          "type": "uint256"
        },
        {
          "internalType": "uint32",
          "name": "did",
          "type": "uint32"
        },
        {
          "internalType": "uint32",
          "name": "rid",
          "type": "uint32"
        },
        {
          "internalType": "uint32",
          "name": "eid",
          "type": "uint32"
        },
        {
          "internalType": "uint32",
          "name": "volReceived",
          "type": "uint32"
        }
      ],
      "stateMutability": "view",
      "type": "function",
      "constant": true
    },
    {
      "inputs": [
        {
          "internalType": "uint32",
          "name": "",
          "type": "uint32"
        },
        {
          "internalType": "uint256",
          "name": "",
          "type": "uint256"
        }
      ],
      "name": "transactionsByID",
      "outputs": [
        {
          "internalType": "uint256",
          "name": "id",
          "type": "uint256"
        },
        {
          "internalType": "uint32",
          "name": "did",
          "type": "uint32"
        },
        {
          "internalType": "uint32",
          "name": "rid",
          "type": "uint32"
        },
        {
          "internalType": "uint32",
          "name": "eid",
          "type": "uint32"
        },
        {
          "internalType": "uint32",
          "name": "volReceived",
          "type": "uint32"
        }
      ],
      "stateMutability": "view",
      "type": "function",
      "constant": true
    },
    {
      "inputs": [
        {
          "internalType": "uint32",
          "name": "did",
          "type": "uint32"
        },
        {
          "internalType": "uint32",
          "name": "rid",
          "type": "uint32"
        },
        {
          "internalType": "uint32",
          "name": "eid",
          "type": "uint32"
        },
        {
          "internalType": "uint32",
          "name": "volReceived",
          "type": "uint32"
        }
      ],
      "name": "addTransaction",
      "outputs": [],
      "stateMutability": "nonpayable",
      "type": "function"
    },
    {
      "inputs": [],
      "name": "getTransactions",
      "outputs": [
        {
          "components": [
            {
              "internalType": "uint256",
              "name": "id",
              "type": "uint256"
            },
            {
              "internalType": "uint32",
              "name": "did",
              "type": "uint32"
            },
            {
              "internalType": "uint32",
              "name": "rid",
              "type": "uint32"
            },
            {
              "internalType": "uint32",
              "name": "eid",
              "type": "uint32"
            },
            {
              "internalType": "uint32",
              "name": "volReceived",
              "type": "uint32"
            }
          ],
          "internalType": "struct Lifeflow.Transaction[]",
          "name": "",
          "type": "tuple[]"
        }
      ],
      "stateMutability": "view",
      "type": "function",
      "constant": true
    },
    {
      "inputs": [
        {
          "internalType": "uint32",
          "name": "id",
          "type": "uint32"
        }
      ],
      "name": "getTransactionsByUserID",
      "outputs": [
        {
          "components": [
            {
              "internalType": "uint256",
              "name": "id",
              "type": "uint256"
            },
            {
              "internalType": "uint32",
              "name": "did",
              "type": "uint32"
            },
            {
              "internalType": "uint32",
              "name": "rid",
              "type": "uint32"
            },
            {
              "internalType": "uint32",
              "name": "eid",
              "type": "uint32"
            },
            {
              "internalType": "uint32",
              "name": "volReceived",
              "type": "uint32"
            }
          ],
          "internalType": "struct Lifeflow.Transaction[]",
          "name": "",
          "type": "tuple[]"
        }
      ],
      "stateMutability": "view",
      "type": "function",
      "constant": true
    }
  ],
  "bytecode": "0x608060405234801561000f575f80fd5b50335f806101000a81548173ffffffffffffffffffffffffffffffffffffffff021916908373ffffffffffffffffffffffffffffffffffffffff160217905550610c378061005c5f395ff3fe608060405234801561000f575f80fd5b5060043610610060575f3560e01c806314538128146100645780632da5b035146100985780632e7ad2f2146100b457806383920e90146100e45780638da5cb5b14610102578063e36584b214610120575b5f80fd5b61007e600480360381019061007991906108da565b610154565b60405161008f959493929190610945565b60405180910390f35b6100b260048036038101906100ad91906109c0565b6101df565b005b6100ce60048036038101906100c99190610a24565b61054b565b6040516100db9190610b7b565b60405180910390f35b6100ec610664565b6040516100f99190610b7b565b60405180910390f35b61010a61079b565b6040516101179190610baa565b60405180910390f35b61013a60048036038101906101359190610bc3565b6107be565b60405161014b959493929190610945565b60405180910390f35b6001602052815f5260405f20818154811061016d575f80fd5b905f5260205f2090600202015f9150915050805f015490806001015f9054906101000a900463ffffffff16908060010160049054906101000a900463ffffffff16908060010160089054906101000a900463ffffffff169080600101600c9054906101000a900463ffffffff16905085565b5f6040518060a0016040528060015f3373ffffffffffffffffffffffffffffffffffffffff1673ffffffffffffffffffffffffffffffffffffffff1681526020019081526020015f208054905081526020018663ffffffff1681526020018563ffffffff1681526020018463ffffffff1681526020018363ffffffff16815250905060015f3373ffffffffffffffffffffffffffffffffffffffff1673ffffffffffffffffffffffffffffffffffffffff1681526020019081526020015f2081908060018154018082558091505060019003905f5260205f2090600202015f909190919091505f820151815f01556020820151816001015f6101000a81548163ffffffff021916908363ffffffff16021790555060408201518160010160046101000a81548163ffffffff021916908363ffffffff16021790555060608201518160010160086101000a81548163ffffffff021916908363ffffffff160217905550608082015181600101600c6101000a81548163ffffffff021916908363ffffffff160217905550505060025f826020015163ffffffff1663ffffffff1681526020019081526020015f2081908060018154018082558091505060019003905f5260205f2090600202015f909190919091505f820151815f01556020820151816001015f6101000a81548163ffffffff021916908363ffffffff16021790555060408201518160010160046101000a81548163ffffffff021916908363ffffffff16021790555060608201518160010160086101000a81548163ffffffff021916908363ffffffff160217905550608082015181600101600c6101000a81548163ffffffff021916908363ffffffff160217905550505060025f826040015163ffffffff1663ffffffff1681526020019081526020015f2081908060018154018082558091505060019003905f5260205f2090600202015f909190919091505f820151815f01556020820151816001015f6101000a81548163ffffffff021916908363ffffffff16021790555060408201518160010160046101000a81548163ffffffff021916908363ffffffff16021790555060608201518160010160086101000a81548163ffffffff021916908363ffffffff160217905550608082015181600101600c6101000a81548163ffffffff021916908363ffffffff16021790555050505050505050565b606060025f8363ffffffff1663ffffffff1681526020019081526020015f20805480602002602001604051908101604052809291908181526020015f905b82821015610659578382905f5260205f2090600202016040518060a00160405290815f8201548152602001600182015f9054906101000a900463ffffffff1663ffffffff1663ffffffff1681526020016001820160049054906101000a900463ffffffff1663ffffffff1663ffffffff1681526020016001820160089054906101000a900463ffffffff1663ffffffff1663ffffffff16815260200160018201600c9054906101000a900463ffffffff1663ffffffff1663ffffffff168152505081526020019060010190610589565b505050509050919050565b606060015f3373ffffffffffffffffffffffffffffffffffffffff1673ffffffffffffffffffffffffffffffffffffffff1681526020019081526020015f20805480602002602001604051908101604052809291908181526020015f905b82821015610792578382905f5260205f2090600202016040518060a00160405290815f8201548152602001600182015f9054906101000a900463ffffffff1663ffffffff1663ffffffff1681526020016001820160049054906101000a900463ffffffff1663ffffffff1663ffffffff1681526020016001820160089054906101000a900463ffffffff1663ffffffff1663ffffffff16815260200160018201600c9054906101000a900463ffffffff1663ffffffff1663ffffffff1681525050815260200190600101906106c2565b50505050905090565b5f8054906101000a900473ffffffffffffffffffffffffffffffffffffffff1681565b6002602052815f5260405f2081815481106107d7575f80fd5b905f5260205f2090600202015f9150915050805f015490806001015f9054906101000a900463ffffffff16908060010160049054906101000a900463ffffffff16908060010160089054906101000a900463ffffffff169080600101600c9054906101000a900463ffffffff16905085565b5f80fd5b5f73ffffffffffffffffffffffffffffffffffffffff82169050919050565b5f6108768261084d565b9050919050565b6108868161086c565b8114610890575f80fd5b50565b5f813590506108a18161087d565b92915050565b5f819050919050565b6108b9816108a7565b81146108c3575f80fd5b50565b5f813590506108d4816108b0565b92915050565b5f80604083850312156108f0576108ef610849565b5b5f6108fd85828601610893565b925050602061090e858286016108c6565b9150509250929050565b610921816108a7565b82525050565b5f63ffffffff82169050919050565b61093f81610927565b82525050565b5f60a0820190506109585f830188610918565b6109656020830187610936565b6109726040830186610936565b61097f6060830185610936565b61098c6080830184610936565b9695505050505050565b61099f81610927565b81146109a9575f80fd5b50565b5f813590506109ba81610996565b92915050565b5f805f80608085870312156109d8576109d7610849565b5b5f6109e5878288016109ac565b94505060206109f6878288016109ac565b9350506040610a07878288016109ac565b9250506060610a18878288016109ac565b91505092959194509250565b5f60208284031215610a3957610a38610849565b5b5f610a46848285016109ac565b91505092915050565b5f81519050919050565b5f82825260208201905092915050565b5f819050602082019050919050565b610a81816108a7565b82525050565b610a9081610927565b82525050565b60a082015f820151610aaa5f850182610a78565b506020820151610abd6020850182610a87565b506040820151610ad06040850182610a87565b506060820151610ae36060850182610a87565b506080820151610af66080850182610a87565b50505050565b5f610b078383610a96565b60a08301905092915050565b5f602082019050919050565b5f610b2982610a4f565b610b338185610a59565b9350610b3e83610a69565b805f5b83811015610b6e578151610b558882610afc565b9750610b6083610b13565b925050600181019050610b41565b5085935050505092915050565b5f6020820190508181035f830152610b938184610b1f565b905092915050565b610ba48161086c565b82525050565b5f602082019050610bbd5f830184610b9b565b92915050565b5f8060408385031215610bd957610bd8610849565b5b5f610be6858286016109ac565b9250506020610bf7858286016108c6565b915050925092905056fea2646970667358221220385a5c8bd6e8bfc63a02d7487e483f81fd36a45bf2eb13cbd717ac3b710ce98f64736f6c63430008150033",
  "immutableReferences": {},
  "source": "// SPDX-License-Identifier: MIT\npragma solidity >=0.6.12 <0.9.0;\n\ncontract Lifeflow {\n    address public owner;\n\n    struct Transaction {\n        uint256 id;\n        uint32 did;\n        uint32 rid;\n        uint32 eid;\n        uint32 volReceived;\n    }\n\n    mapping(address => Transaction[]) public transactions;\n    mapping(uint32 => Transaction[]) public transactionsByID;\n\n    constructor() {\n        owner = msg.sender;\n    }\n\n    modifier onlyOwner() {\n        require(msg.sender == owner, \"Only owner is allowed to perform this action\");\n        _;\n    }\n\n    function addTransaction(\n        uint32 did,\n        uint32 rid,\n        uint32 eid,\n        uint32 volReceived\n    ) public {\n        Transaction memory tr = Transaction({\n            id: transactions[msg.sender].length, \n            did: did,\n            rid: rid,\n            volReceived: volReceived,\n            eid: eid\n        });\n       transactions[msg.sender].push(tr);\n       transactionsByID[tr.did].push(tr);\n       transactionsByID[tr.rid].push(tr);\n       //return tr;\n    }\n\n    function getTransactions() public view returns (Transaction[] memory) {\n        return transactions[msg.sender];\n    }\n\n    function getTransactionsByUserID(uint32 id) public view returns (Transaction[] memory) {\n        return transactionsByID[id];\n    }\n}\n",
  "sourcePath": "C:\\Ved\\Academic\\Coding\\Projects\\lifeflow_backend\\blockchain_server\\contracts\\Lifeflow.sol",
  "compiler": {
    "name": "solc",
    "version": "0.8.21+commit.d9974bed.Emscripten.clang"
  },
  "schemaVersion": "3.4.16",
  "updatedAt": "2024-03-15T07:10:52.803Z",
  "networkType": "ethereum",
  "devdoc": {
    "kind": "dev",
    "methods": {},
    "version": 1
  },
  "userdoc": {
    "kind": "user",
    "methods": {},
    "version": 1
  }
}